:100000000C9434000C943E000C943E000C943E0082
:100010000C943E000C943E000C943E000C943E0068
:100020000C943E000C943E000C943E000C943E0058
:100030000C943E000C943E000C943E000C943E0048
:100040000C943E000C943E000C943E000C943E0038
:100050000C943E000C943E000C943E000C943E0028
:100060000C943E000C943E0011241FBECFEFD8E04C
:10007000DEBFCDBF0E949E000C94E8000C940000EF
:100080008130910539F487E090E02C9A2C98019703
:10009000E1F708959C01225031092230310538F4EE
:1000A00086E090E02C9A2C980197E1F708959C0146
:1000B000245031092430310538F485E090E02C9A41
:1000C0002C980197E1F708959C01285031092830B8
:1000D000310538F484E090E02C9A2C980197E1F7F0
:1000E00008959C01205131092031310538F483E015
:1000F00090E02C9A2C980197E1F708959C012052EA
:1001000031092032310518F42C9A2C9806C09C0134
:10011000205431092034310510F42C9A05C0805840
:1001200091098038910508F42C9808952B9888E05F
:1001300090E02C9A2C980197E1F70895CF93DF93E4
:10014000249A239A229A209A2A982A9A2B9888E00D
:1001500090E02C9A2C980197E1F7289A2FEF83EDE5
:1001600090E3215080409040E1F700C000002898C3
:10017000C1E0D0E0CE019595879580FF05C02B9A10
:100180002C9A2C982B98F7CF2B982C9A2C98009778
:1001900091F7CE010E944000289A2FEF83ED90E363
:1001A000215080409040E1F700C0000028980E9454
:1001B0009600CF3FD10511F4C1E0D0E02196C130C7
:1001C00022E0D207B9F680E090E0DF91CF91089568
:0401D000F894FFCFD1
:00000001FF
